:020000040800F2
:1000000060070020350200087B1A00084518000828
:10001000791A00082B040008BD1F0008000000002A
:10002000000000000000000000000000091C0008A3
:100030006D040008000000007D1A00080B1C000879
:100040004F0200084F0200084F0200084F0200084C
:100050004F0200084F0200084F0200084F0200083C
:100060004F0200084F0200084F0200084F0200082C
:100070004F0200084F0200084F0200084F0200081C
:100080004F0200084F0200084F0200080000000065
:100090000000000000000000000000004F02000807
:1000A0004F0200084F0200084F0200084F020008EC
:1000B0004F0200084F0200084F0200084F020008DC
:1000C0004F0200084F0200084F0200084F020008CC
:1000D000811A00084F0200084F02000800000000CB
:1000E0004F0200084F0200084F0200080000000005
:1000F0000000000000000000000000004F020008A7
:10010000000000004F0200084F0200084F020008E4
:1001100000000000000000000000000000000000DF
:100120004F0200084F0200084F0200084F0200086B
:100130004F02000800000000000000000000000066
:100140000000000000000000000000004F02000856
:100150004F0200084F0200084F0200084F0200083B
:100160004F0200084F0200080000000000000000DD
:10017000000000000000000000000000000000007F
:10018000000000004F020008000000000000000016
:100190004F02000800F002F800F03CF80AA090E8D6
:1001A000000C82448344AAF10107DA4501D100F032
:1001B00031F8AFF2090EBAE80F0013F0010F18BFC3
:1001C000FB1A43F001031847A8210000C8210000D2
:1001D000103A24BF78C878C1FAD8520724BF30C873
:1001E00030C144BF04680C60704700000023002445
:1001F00000250026103A28BF78C1FBD8520728BF37
:1002000030C148BF0B6070471FB502F09FF81FBD9B
:1002100010B510BD00F0CFF81146FFF7F5FF01F063
:10022000F1FE00F0EDF803B4FFF7F2FF03BC00F0BD
:10023000F5F800000948804709480047FEE7FEE757
:10024000FEE7FEE7FEE7FEE7FEE7FEE7FEE7FEE786
:1002500004480549054A064B70470000A91C0008E0
:100260009501000860010020600700206003002065
:100270006003002053EA020C00F069802DE9F04B86
:100280004FF00006002B1FBFB3FA83F503FA05F405
:1002900024FA05F65E4012BF1643B2FA82F502FA5E
:1002A00005F4C5F120051EBF22FA05FC44EA0C0442
:1002B000203556EA044C4FEA144418BF641C4FF032
:1002C00000084FF00009904271EB030C39D300296C
:1002D00019BFB1FA81F701FA07F6B0FA80F700FA10
:1002E00007F6C7F120071EBF20FA07FC46EA0C06F6
:1002F0002037B6FBF4FCA7EB0507103F07F01F0BF8
:10030000CBF120060CFA0BFB2CFA06F644BFB346E1
:100310000026202FA4BF5E464FF0000B5BEA060CC0
:1003200008BF4FF0010B19EB0B09ABFB027C48EB4C
:100330000608C01B06FB02CC0BFB03CC71EB0C01C7
:10034000C1E70B46024641464846BDE8F08B13B56F
:100350004FF000004FF00001AFF30080BDE81C40FB
:1003600070474FF0000200B5134694469646203978
:1003700022BFA0E80C50A0E80C50B1F12001BFF45E
:10038000F7AF090728BFA0E80C5048BF0CC05DF8C4
:1003900004EB890028BF40F8042B08BF704748BF12
:1003A00020F8022B11F0804F18BF00F8012B704786
:1003B000704770477047754600F02CF8AE46050050
:1003C0006946534620F00700854618B020B5FFF770
:1003D0003FFFBDE820404FF000064FF000074FF010
:1003E00000084FF0000B21F00701AC46ACE8C00953
:1003F000ACE8C009ACE8C009ACE8C0098D4670475C
:1004000010B50446AFF300802046BDE81040FFF76A
:100410000ABF000000487047FC0000200149182076
:10042000ABBEFEE7260002007047FEE70022022175
:10043000014800F033B90000000802400122022107
:10044000014800F02BB90000000802400022012101
:10045000014800F023B900000008024001221146C3
:10046000014800F01BB9000000080240704772B656
:10047000FEE790F83510022903D080214165012064
:100480007047052180F835100068016821F00101EE
:10049000016000207047000070B5044600F004F9C8
:1004A0000546601C02D004480078044400F0FCF8C3
:1004B000401BA042FAD370BD080000202DE9F84F80
:1004C000DFF8B8A1002201240AF1040B03254FF044
:1004D0000F090BF1040E00BF0B6804FA02F633405B
:1004E000B34273D10F7907F00307012F01D0022F18
:1004F00016D187684FEA420805FA08FC27EA0C077C
:10050000D1F80CC00CFA08FC4CEA070CC0F808C083
:100510004768B7430E79C6F3001696403E434660DF
:100520000E79F643B6070DD0C768560005FA06FCEB
:1005300027EA0C07D1F808C00CFA06FC4CEA070CB5
:10054000C0F80CC00E7906F00306022E10D1D608B2
:1005500000EB8608D8F8206057074FEAD76C09FAF5
:100560000CF7BE430F6907FA0CF73743C8F8207041
:1005700006684FEA420C05FA0CF7BE430F7907F004
:10058000030707FA0CF7374307604E6816F4403F3D
:100590006DD03B4E376847F480473760366822F0AD
:1005A000030706F480460096364E07EB060CDCF88F
:1005B000086897073F0F09FA07F826EA0806DFF8E8
:1005C000C880404503D14FF000081EE04FE0DFF83F
:1005D000BC80404502D14FF0010816E0DFF8B08042
:1005E000404502D14FF002080FE0DFF8A8804045F7
:1005F00002D14FF0030808E0DFF89C80404502D1AB
:100600004FF0040801E04FF0070808FA07F848EA3D
:100610000608CCF80888DAF800605746D1F804C01C
:100620009E435FEACC3C00D51E433E60DBF8006091
:100630005F46D1F804C09E435FEA8C3C00D51E4360
:100640003E60DEF800607746D1F804C09E435FEA62
:10065000CC2C00D51E433E60084F0C373E68D1F8C5
:1006600004C09E435FEA8C2C00D51E433E60521CA2
:10067000102AFFF431AFBDE8F88F0000003C0140C4
:1006800044380240003001400000024000040240B3
:1006900000080240000C0240001002400AB18161D3
:1006A00070470904FBE700000148806870470000BC
:1006B0000800002002488168027811448160704778
:1006C000080000200B4810B5016841F4007101607A
:1006D000016841F480610160016841F4807101604A
:1006E000032000F071F8002000F006F800F024F874
:1006F000002010BD003C024070B50D4D04464FF483
:100700007A712878B1FBF0F00A490968B1FBF0F082
:1007100000F08BFE48B9102C07D200222146501E53
:1007200000F032F800206C6070BD012070BD000048
:1007300008000020140000200B4882B0016841F43A
:1007400080410160006800F4804000900648001F6E
:10075000016841F080510160006800F08050009015
:10076000072002B000F030B844380240002809DB0E
:1007700000F01F02012191404009800000F1E020BB
:10078000C0F8001170470000F0B40E4B1B680C4617
:10079000C3F30223C3F10705042D00D90425191D55
:1007A000072901D2002300E0DB1E012606FA05F12D
:1007B000491E214099409E40761E16403143F0BCB0
:1007C00001F0FDBB0CED00E0064900F007020868EF
:1007D0004FF6FF03184040EA0220034A1043086026
:1007E000704700000CED00E00000FA052DE9F0472D
:1007F0000E46050065D0DFF81481D8F80000F7B286
:1008000000F00700B04207D288F80070D8F8000066
:1008100000F00700B04254D128683D4C810712D542
:10082000400703D5206840F4E05020602878000796
:1008300003D5206840F4604020602068A96820F05B
:10084000F000084320602878C0072DD03049686840
:100850000839012812D0022813D0032811D00968C2
:10086000890700292DDA216821F003010143216065
:10087000FFF71AFF814641F2883A0EE009688903C2
:10088000EFE709688901ECE7FFF70EFFA0EB09012C
:10089000514502D90320BDE8F0872068696800F05F
:1008A0000C00B0EB810FEFD1D8F80010404601F0FA
:1008B0000701B14207D90770006800F00700B04295
:1008C00001D00120E7E72878400705D52068E968CE
:1008D00020F4E050084320602878000706D52068FF
:1008E000296920F4604040EAC100206000F038F837
:1008F0002168084AC1F30311515CC84006490860E9
:1009000006480068FFF7F8FE0020C4E7003C0240FC
:100910000838024056230008140000200C00002074
:100920000448054900680968044AC1F38221515C02
:10093000C8407047140000200838024066230008B1
:100940000448054900680968044AC1F34231515C12
:10095000C840704714000020083802406623000891
:10096000154810B5006810F00C02144813D041105F
:10097000042A0FD0082A0ED10F4C241F22682368A6
:1009800002F03F025B0207D52068C0F38810A0FB8D
:10099000010106E0084610BD2168C1F38811A1FBE2
:1009A00000010023FFF766FC2168C1F30141491CE7
:1009B0004900B0FBF1F010BD083802400024F400FB
:1009C0002DE9F84F04006ED02078DFF84C93C00773
:1009D000A9F104054AD009F104000168C1F38101BD
:1009E000012908D00068C0F3810002280AD1D9F893
:1009F0000000400206D52868800337D560680028CB
:100A0000E1D033E06068B0F5803F10D0B0F5A02FA2
:100A1000286810D020F480302860286820F48020D6
:100A200028606068A8B1FFF73FFE06460DE0286821
:100A300040F48030F4E740F480202860F7E700BFFE
:100A4000FFF732FE801B642873D828688003F7D52F
:100A50000CE0FFF729FE064605E000BFFFF724FE85
:100A6000801B6428F0D828688003F7D42078DFF84A
:100A7000AC8280074FF0000A3ED5A748001D0168F0
:100A800011F00C0F08D00068C0F3810002280BD1D0
:100A9000D9F80000400207D42868800716D5E0681E
:100AA000012800D112E033E1E068B8B10120C8F8B4
:100AB0000000FFF7F9FD064605E000BFFFF7F4FD73
:100AC000801B0228C0D828688007F7D528682169CC
:100AD00020F0F80040EAC10028600DE0C8F800A04E
:100AE000FFF7E2FD064604E0FFF7DEFD801B02286B
:100AF0001FD828688007F7D42078000722D5864FB2
:100B000087486169703771B101210160FFF7CCFD41
:100B1000064604E0FFF7C8FD801B022809D83868A4
:100B20008007F7D50EE0C0F800A0FFF7BDFD064630
:100B300005E082E0FFF7B8FD801B02287DD8386809
:100B40008007F7D42078400768D5DFF8CCB10027BC
:100B50000BF13C0BDBF80000C0000BD4DBF80010FD
:100B600041F08051CBF80010DBF80000012700F0C5
:100B7000805000906B4E3068C00510D4306840F44F
:100B800080703060FFF790FD009005E0FFF78CFD6E
:100B90000099401A022850D83068C005F6D55E4E3C
:100BA000A0686C3601280FD00528306810D020F0DE
:100BB00001003060306820F004003060A068B8B1F7
:100BC000FFF772FD00900FE0306840F00100F4E79D
:100BD00040F004003060F7E7FFF766FD0099411A26
:100BE00041F28830814266D830688007F4D50EE043
:100BF000FFF75AFD009007E0FFF756FD0099411AF4
:100C000041F28830814256D830688007F4D42FB141
:100C1000DBF8001021F08051CBF80010A069C8B3B8
:100C20003D49091D0968C1F3810102294AD0022802
:100C3000504607D0C8F8600000E03CE0FFF734FD04
:100C400004463BE04746C8F86000FFF72DFD064626
:100C500005E000BFFFF728FD801B02282BD828687D
:100C60008001F7D4D4E907010843A16A2E4A490854
:100C700002EB0141626A41EA8211084394F82C10A8
:100C800040EA0161C9F8001001203866FFF70CFD49
:100C9000044606E03EE000BFFFF706FD001B022809
:100CA00009D828688001F7D534E000BFFFF7FCFCC5
:100CB000001B022802D90320BDE8F88F28688001B4
:100CC000F4D427E00128F7D0D9F80000E26900F455
:100CD000800191421CD1226A00F03F01914217D15C
:100CE00047F6C071626A0140B1EB821F10D1A26A5F
:100CF0004FF0FF3300F4403103EB5202B1EB024FEF
:100D000006D194F82C1000F07060B0EB016F01D0A8
:100D10000120D1E70020CFE704380240000047421D
:100D2000800E4742007000400000FFFF7047000047
:100D300038B5016804464A688868C043430606D54A
:100D4000C30704D1D3435B0601D4216C05E08307BC
:100D500008D4D3431B0605D4616C01B02046BDE81E
:100D600030400847830603D5430601D5C30551D457
:100D7000D3439B064ED443060AD494F85130032B38
:100D800049D0636D43F004036365CB688B680093BF
:100D9000830609D4636D43F0010363658B68009398
:100DA0000B6823F040030B60C00506D4606D40F073
:100DB00008006065206880680090606D002829D078
:100DC0002068416821F0E0014160012084F8510071
:100DD000900701D4D00722D02068416821F0030198
:100DE0004160114DE06C40B10565E06CFFF741FBDF
:100DF00018B1606D40F040006065A06C002809D01B
:100E00000565A06CFFF735FB002803D0606D40F04E
:100E10004000606538BDC8688868009038BD2046CD
:100E2000FFF784FF38BD00008D1A000870B504007C
:100E300009D0606A002540B125616561A56294F81A
:100E4000510040B10CE0012070BD6068B0F5827FB8
:100E5000F4D0E561F2E784F85050204600F044F801
:100E6000022084F851002068016821F040010160EF
:100E7000A088218900F4827001F404410843A1890B
:100E800001F400610843217C01F002010843217D47
:100E900001F001010843218B01F400710843217F17
:100EA00001F03801084394F8201001F08001084354
:100EB000218D01F40051084321680860A0690421D4
:100EC00001EA104094F8241001F010010843216851
:100ED00048602068C16921F40061C1616565012035
:100EE00084F85100002070BDF0B587B0044614218D
:100EF0006846FFF736FA2049206888423AD11F48F1
:100F00000024016841F480410160006800F48040E1
:100F100005901A481038016841F004010160016829
:100F200001F004010591016841F0020101600068CF
:100F3000022500F0020005900C20CDE9000502AA70
:100F40000326052782E8D00069460D48FFF7B6FA68
:100F50006802CDE9000502AA694682E8D000094886
:100F6000FFF7ACFA002211462420FFF70DFC2420E5
:100F7000FFF7FCFB07B0F0BD0038004040380240EE
:100F800000080240000402402DE9F84F0446406882
:100F90000025984616460F464FF0040BB0F5827FA9
:100FA00001D1A06888B194F85000012818D0012020
:100FB00084F85000FFF778FB814694F851004FF019
:100FC000000A01280ED0022582E084F851B01346B1
:100FD0000A462046CDF8008000F036F9BDE8F88FCB
:100FE0000220FBE7002F72D0002E70D084F851B0A1
:100FF000C4F854A0A763A687E687C4F830A0A4F875
:1010000034A0A4F836A0C4F840A0C4F844A0A06856
:10101000B0F5004F09D12068016821F0400101605E
:101020002068016821F48041016020680168490658
:1010300003D4016841F040010160E068D8B139E0B3
:1010400020688168C90709D0007BA16B0870A06B7C
:10105000401CA063E08F401EE0870CE0FFF724FBFC
:10106000A0EB0901414503D3B8F1FF3F03D036E0BF
:10107000B8F1000F33D0E08F0028E1D11DE02068E7
:101080008168C90709D0C068A16B0880A06B801C6B
:10109000A063E08F401EE0870CE0FFF705FBA0EBAC
:1010A0000901414503D3B8F1FF3F03D017E0B8F180
:1010B000000F14D0E08F0028E1D14A464146204677
:1010C00000F0ECFC08B120206065606D00B10125E6
:1010D000012084F8510084F850A028467EE70325BB
:1010E000F6E72DE9F84F044690F8500000271D461A
:1010F0001646894601280DD04FF0010B84F850B0F8
:10110000FFF7D2FA804694F85100BA46012804D07D
:10111000022793E00220BDE8F88FB9F1000F73D0E9
:10112000002E71D0032084F85100C4F854A0C4F8F4
:101130003090A686E686C4F838A0A4F83CA0A4F8AF
:101140003EA0C4F844A0C4F840A0A068B0F5004F89
:1011500009D12068016821F0400101602068016820
:1011600041F48041016020680168490603D40168A8
:1011700041F040010160E068B0F5006F606803D0A5
:1011800030B3012E24D041E008B1012E1CD1206BD8
:1011900021680088C86006E020688168890709D551
:1011A000216B0988C160206B801C2063E08E401E8B
:1011B000E08609E0FFF778FAA0EB0800A84202D326
:1011C000681C01D031E07DB3E08E0028E4D120E03E
:1011D000206B21680078087306E020688168890721
:1011E00009D5216B09780173206B401C2063E08EC8
:1011F000401EE0860AE0FFF757FAA0EB0800A8427D
:1012000003D3681C02D010E017E06DB1E08E002817
:10121000E3D142462946204600F06EFC08B120206A
:101220006065A06818B106E0FFE7032706E02068C4
:10123000C16880680090606D00B1012784F851B0EA
:1012400084F850A0384666E72DE9F84F044690F838
:10125000500000270A9E1D4692468B464FF001091A
:1012600001280ED0012084F85000FFF71DFA8046B7
:1012700094F85100616801280CD0B1F5827F07D144
:1012800002E00220BDE8F88FA16809B9042801D066
:101290000227C2E0BBF1000F27D0BAF1000F24D023
:1012A0001DB394F85100042802D0052084F85100A1
:1012B00000206065C4F838A0E587A587C4F830B081
:1012C000E586A5862064606420680168490603D429
:1012D000016841F040010160E068B0F5006F6068AE
:1012E00005D0E8B3012D46D07FE0012795E008B195
:1012F000012D39D1206B21680088C860206B801CCB
:101300002063E08E401EE0862EE020688168890719
:101310000FD5E18E69B1B9F1010F0AD1216B0988AE
:10132000C160206B801C2063E08E401EE0864FF081
:10133000000920688168C9070CD0E18F51B1C068ED
:10134000A16B0880A06B801CA063E08F401EE0872B
:101350004FF00109FFF7A8F9A0EB0800B04200E048
:1013600009E001D3701C50D1E08E0028CDD1E08F70
:101370000028CAD13FE0206B216800780873206BF9
:10138000401C2063E08E401EE0862EE020688168CD
:1013900089070FD5E18E69B1B9F1010F0AD1216B2F
:1013A00009780173206B401C2063E08E401EE086AC
:1013B0004FF0000920688168C9070CD0E18F51B156
:1013C000C068A16B0870A06B401CA063E08F401E3A
:1013D000E0874FF00109FFF767F9A0EB0800B04282
:1013E00002D3701C01D010E07EB1E08E0028CDD178
:1013F000E08F0028CAD142463146204600F07CFBEF
:1014000028B101272020606507E0032705E0A068D8
:1014100018B92068C16880680090012084F85100E4
:10142000002084F8500038462CE710B5401EB0F17B
:10143000807F01D3012010BD4FF0E02460610F21B7
:10144000601700F0BCFD0020A06107202061002093
:1014500010BD10B590F83C20012A22D0012280F85E
:101460003C20CA688C6822F4407222434C6822F403
:10147000806222430C6822F4006222430C6922F449
:10148000805222434C6922F400522243C96900234E
:1014900022F480420A4301684A6480F83C3000200C
:1014A00010BD022010BD000070B590F83C20012A4C
:1014B0002CD0012480F83C40022280F83D200368B3
:1014C0005A689D6822F070060A6832435A60104BD1
:1014D00002689A420ED0B2F1804F0BD00D4B9A4267
:1014E00008D00D4B9A4205D00C4B9A4202D00C4BBF
:1014F0009A4204D1496825F080031943916080F82D
:101500003D40002180F83C10084670BD022070BDAF
:10151000000001400004004000080040000C0040B2
:101520000040014010B586B0044614216846FEF71D
:1015300018FF0E492068884216D10D480021026824
:1015400042F001020260006800F0010005904FF4D3
:10155000706000900220CDE901010120CDE9031067
:1015600069460448FEF7AAFF06B010BD000001401E
:10157000303802400000024070B5044690F83C004C
:1015800000260D4601280FD0012084F83C006AB1E6
:10159000042A1DD0082A2FD00C2A3FD00126002073
:1015A00084F83C00304670BD022070BD206800F019
:1015B000DDFB2068816941F0080181612068816953
:1015C00021F004018161206881692A69114311E0D9
:1015D000206800F0F3FB2068816941F400618161BB
:1015E0002068816921F480618161206881692A69AC
:1015F00041EA02218161D2E7206800F00BFC2068FB
:10160000C16941F00801C1612068C16921F004018C
:10161000C1612068C1692A69114311E0206800F0A6
:1016200025FC2068C16941F40061C1612068C1697D
:1016300021F48061C1612068C1692A6941EA0221FF
:10164000C161ACE710B5040003D094F83D0010B1BF
:1016500007E0012010BD002084F83C00204600F087
:101660001FF8022084F83D00211D206800F024FBB3
:10167000012084F8460084F83E0084F83F0084F896
:10168000400084F8410084F8420084F8430084F864
:10169000440084F8450084F83D00002010BD00009F
:1016A00008B500680649884208D10648016841F03B
:1016B00001010160006800F00100009008BD000019
:1016C000000001404438024010B50446022249B1EE
:1016D00004290ED0082913D094F84100012816D00F
:1016E000012010BD94F83E000128F9D184F83E2075
:1016F0000FE094F83F000128F2D184F83F2008E081
:1017000094F840000128EBD184F8402001E084F8EF
:1017100041200122206800F01BFB1249206888420A
:1017200003D1426C42F400424264206888420ED0E9
:10173000B0F1804F0BD00C49884208D00B49884249
:1017400005D00B49884202D00A49884204D18168F9
:1017500001F00701062903D0016841F00101016091
:10176000002010BD000001400004004000080040BF
:10177000000C00400040014070B5040004D094F813
:101780003D00002510B106E0012070BD84F83C50FA
:10179000204600F023F8242084F83D002068C1682A
:1017A00021F40051C160204600F082FB20680169ED
:1017B00021F4904101612068416921F02A014161D1
:1017C0002068C16841F40051C1602564202084F87C
:1017D0003D0084F83E00002070BD000010B586B0CA
:1017E000044614216846FEF7BCFD13492068884270
:1017F00020D112480021026842F010020260006805
:1018000000F0100005900D481438026842F0020202
:101810000260006800F002000590C02000900220E5
:10182000CDE9010103200390072004906946044894
:10183000FEF744FE06B010BD0010014044380240DF
:1018400000040240FEE700000849002378280A68E7
:1018500004D36438D0630868036470476428FCD8F4
:10186000D3630968C0F1620008647047700000200B
:101870000849002378280A6804D36438506308684C
:10188000836370476428FCD853630968C0F15F0024
:101890008863704770000020F0B587B01421684657
:1018A000FEF75FFD1D480024016841F0040101605E
:1018B000016801F004010591016841F00101016036
:1018C000016801F001010591016841F00201016028
:1018D0000068134E00F002000590002203213046FC
:1018E000FEF7DCFE0F4F002220213846FEF7D6FE21
:1018F000032000900125CDE9015469463046039448
:10190000FEF7DCFD20200090CDE901546946384601
:101910000394FEF7D3FD07B0F0BD0000303802405D
:101920000008024000000240104810B50E49016056
:101930004FF48271416000218160C1604FF40072F8
:101940000161C0E905121022C0E9072141628162EC
:101950000A21C162FFF76AFA002803D0BDE81040EF
:10196000FEF785BD10BD00000038004018000020C3
:1019700010B592B000240F941C2168461094FEF715
:10198000F0FC202107A8FEF7ECFC2C482A49016056
:101990005321C0E901146421C0E903144461846146
:1019A000FFF750FE08B1FEF762FD0F940FA9234820
:1019B0001094FFF779FD08B1FEF759FD6020CDE9DD
:1019C00000040294039404940594002269461B4881
:1019D0000694FFF7D1FD08B1FEF749FD04226946E0
:1019E0001648FFF7C9FD08B1FEF741FD0822694618
:1019F0001248FFF7C1FD08B1FEF739FD0C22694618
:101A00000E48FFF7B9FD08B1FEF731FD07940894C1
:101A100009944FF400500A94CDE90B4007A90748F8
:101A20000E94FFF716FD08B1FEF721FD0348FFF7FE
:101A300079FD12B010BD00000000014070000020D0
:101A40000C4810B50A4901604FF4E13141600021B2
:101A500081600C22C160C0E904128161C161FFF79D
:101A60008BFE002803D0BDE81040FEF700BD10BD7E
:101A700000100140B8000020FEE7FEE770470000BC
:101A80000148FFF755B900001800002010B5806B21
:101A90000021C187C186FFF749F910BDF8B504469A
:101AA00040684FF48273984221D1A0684FF480655A
:101AB000B0F5004F01D0A8420AD12068066826F090
:101AC000400606606068984211D1A068A8420ED016
:101AD00000920B4600228021204600F039F80028B1
:101AE00004D0606D40F0200060650320F8BD0092D6
:101AF0000B4600220121EFE738B504461248134B8C
:101B00000068B0FBF3F04FF47A73584300906068BC
:101B1000B0F5827F0DD10B46009200228021204635
:101B200000F016F870B1606D40F020006065032091
:101B300038BD009830B1401E009020688068C043D6
:101B40000006F6D5002038BD1400002000366E01D6
:101B50002DE9F8431E46914688460446089DFEF747
:101B6000A3FD401B351AFEF79FFD07462548006878
:101B7000C0F3CB30684338E0701C37D0FEF794FDDB
:101B8000C01BA84203D215B1009860B32CE02068B6
:101B9000416821F0E00141606068B0F5827F0BD1BF
:101BA000A068B0F5004F02D0B0F5806F04D1206876
:101BB000016821F040010160A06AB0F5005F09D121
:101BC0002068016821F4005101602068016841F437
:101BD00000510160012084F85100002084F8500079
:101BE0000320BDE8F8830025401E0090206881682E
:101BF00038EA010004D000214945BDD10020F0E7BA
:101C00000121F9E7140000207047FEF753BD0000E2
:101C100030B593B030216846FEF7A3FB14210CA821
:101C2000FEF79FFB1E480024016841F080510160CF
:101C3000006800F0805011901A48016821F440417A
:101C400041F4004101600068022500F44040119019
:101C5000012003901020009506950490CDE90740DF
:101C60004FF4A870099004200A9007200B90684652
:101C7000FEF7A6FE08B172B6FEE70F20CDE90C050F
:101C80004FF48050CDE90E4002210CA81094FEF7CD
:101C9000ADFD002801D072B6FEE713B030BD0000E4
:101CA00040380240007000400248016841F4700171
:101CB0000160704788ED00E0F0B502681D4B1E4CD6
:101CC0009F031E4D1E4E984207D0B84205D0A04239
:101CD00003D0A84201D0B04204D122F0700C4A686F
:101CE00042EA0C02984210D0B8420ED0A0420CD06A
:101CF000A8420AD0B04208D0124CA04205D0124CE3
:101D0000A04202D0114CA04203D122F44074CA6810
:101D100022434C6922F08002224302608A68C26238
:101D20000A688262984201D1096901630121416117
:101D3000F0BD000000000140000400400008004029
:101D4000000C0040004001400044014000480140B8
:101D500010B501F01F030121046A99408C4304620D
:101D6000016A9A401143016210BD000030B5026A59
:101D700022F001020262026A4368846924F073055A
:101D80000C682C4322F002058A682A430A4DA842B7
:101D90000BD122F00805CA6823F440732A434D6929
:101DA00022F004021D438B692B4343608461496820
:101DB0004163026230BD00000000014030B5026A9C
:101DC00022F010020262026A436884690D6824F4FA
:101DD000E64444EA05248D6822F0200242EA051216
:101DE0000B4DA8420ED1CD6822F0800242EA0512C6
:101DF0004D6923F4406343EA85038D6922F0400274
:101E000043EA85034360846149688163026230BDAF
:101E10000000014030B5026A22F480720262036A57
:101E20004268C46923F4007324F073050C682C43E2
:101E30008D6843EA05230C4DA8420ED1CD6823F4EA
:101E4000006343EA05234D6922F4405242EA051239
:101E50008D6923F4806342EA05124260C4614968D7
:101E6000C163036230BD00000000014030B5026A6A
:101E700022F480520262046A4268C3690D6823F446
:101E8000E64343EA05238D6824F4005444EA05340C
:101E9000064DA84204D14D6922F4804242EA8512DF
:101EA0004260C36149680164046230BD00000140C2
:101EB00070B5044600680169E26821F4405111439D
:101EC00001612169A068E26908436169114308431F
:101ED0002168CA6849F20C639A430243CA602068C9
:101EE0004169A26921F4407111434161314920687F
:101EF000884202D03049884202D1FEF721FD01E03C
:101F0000FEF70EFDE2690023192164253226B2F5A1
:101F1000004F626828D0A0FB0101930F9200FEF7EA
:101F2000A9F90146B0FBF5F06FF01802504301EB40
:101F3000800006EB0010B0FBF5F000F0F002B1FB02
:101F4000F5F002EB0012B1FBF5F06FF01803584307
:101F500001EB800006EB0010B0FBF5F000F00F0085
:101F600021681044886070BDA0FB010192185B419C
:101F7000FEF780F90146B0FBF5F00201B1FBF5F088
:101F80006FF01803584301EB800006EBC000B0FB74
:101F9000F5F000F0F80002EB4002B1FBF5F0584319
:101FA00001EB800006EBC000B0FBF5F000F007008D
:101FB000D6E700000010014000140140FEE70907C9
:101FC000090E002804DB00F1E02080F800147047BF
:101FD00000F00F0000F1E02080F8141D704710B5EC
:101FE0000446072000F078F8410608D510EA440FAF
:101FF00005D04021072000F077F9012010BD002016
:1020000010BD0000FEF75EFBFFF702FEFFF744FC89
:10201000FFF78AFCFFF714FDFFF7AAFC00F034F885
:102020000A21164800F02CF900211548FFF74CFB57
:1020300004211348FFF748FB08211148FFF744FB30
:102040000C210F48FFF740FB0C4C0E4DA41E012045
:10205000FFF7C5FF012805D0012220212846FEF701
:102060001DFBF4E70548801E00F050F82078FFF7CC
:10207000EBFB6078FFF7FCFBE9E7000002000020C3
:10208000700000200000024010B5FEF7CFF9FEF707
:10209000CDF9002000F05EF80C21002000F024F9BA
:1020A0000021012000F020F90021022000F01CF99D
:1020B0000321084600F018F90021042000F014F96B
:1020C0000021052000F010F90E21062000F00CF987
:1020D000BDE81040FEF7B2B901B582B000208DF81E
:1020E0000000FEF7B3F96423012202A90648FEF7B7
:1020F000F8FF6423012269460348FEF745FFFEF717
:10210000ADF99DF800000EBD1800002038B504465A
:1021100000208DF80000FEF799F961208DF800008D
:102120006423012269460A48FEF7DBFF4FF47A7305
:10213000022221460648FEF727FFFEF78FF901200D
:10214000FEF7AAF9E2208DF8000000F0BFF838BDD4
:102150001800002000B587B007287FD017287CD052
:102160000821002000F0C0F83F21012000F0BCF859
:102170000321022000F0B8F80321084600F0B4F86B
:102180000321042000F0B0F80221052000F0ACF893
:102190000E21062000F0A8F80021072000F0A4F886
:1021A0000021082000F0A0F80021092000F09CF890
:1021B0002FA00522D0E90010CDE9001069460A20C1
:1021C00000F0A8F82CA00522D0E90010CDE90210FB
:1021D00002A90B2000F09EF8C3210C2000F084F827
:1021E000C4210D2000F080F8C5210E2000F07CF8FD
:1021F000C6210F2000F078F81DA00522D0E90010BC
:10220000CDE9041004A9102000F084F80021112069
:1022100000F06AF80021122000F066F80021132077
:1022200000F062F80021142000F05EF80021152073
:1022300000F05AF80021162000F056F8112117205E
:1022400000F052F800211C2000F04EF800211D2063
:1022500000F04AF807B000BD00E002E000210720CE
:1022600001E01121172007B05DF804EB00F03CB845
:10227000E7E7E7E7E7000000C2C2C2C2C200000011
:1022800070B50D460446FEF7D1F82946052000F04A
:102290002BF80220FFF720FF40F00201022000F09F
:1022A00023F8052221460B2000F034F802211220E9
:1022B00000F01AF80020FFF70FFF40F003010020A4
:1022C00000F012F8BDE87040FEF7B8B801B5FEF7AF
:1022D000BDF86423012269460248FEF702FFFEF7BB
:1022E000BDF808BD1800002008B540F020008DF8AA
:1022F00000008DF80110FEF7A9F84FF47A7302225E
:1023000069460348FEF7EDFEFEF7A8F808BD000099
:102310001800002038B540F0200014460D468DF816
:102320000000FEF793F86423012269460648FEF791
:10233000D8FEA2B24FF47A7329460348FEF7D1FEC5
:10234000FEF78CF838BD0000180000204FF04070F8
:10235000E1EE100A704700000000000000000102DA
:10236000030406070809000000000102030400003E
:10237000902300080000002018000000D001000891
:10238000A82300081800002048070000EC010008FE
:102390000000EEDDCCBBAA00010000001000000030
:0823A000000000000024F4001D
:040000050800019559
:00000001FF
